:1000000071C0000079C0000077C0000075C000001A
:1000100073C0000071C000006FC000006DC0000020
:100020006BC0000069C0000067C0000065C0000030
:1000300063C0000061C000005FC000005DC0000040
:100040005BC0000059C0000057C0000055C0000050
:1000500053C0000051C000004FC000004DC0000060
:100060004BC0000049C0000047C0000045C0000070
:1000700043C0000041C000003FC000003DC0000080
:100080003BC0000039C0000037C0000035C0000090
:1000900033C0000031C000002FC000002DC00000A0
:1000A0002BC0000029C0000027C0000025C00000B0
:1000B00023C0000021C000001FC000001DC00000C0
:1000C0001BC0000019C0000017C0000015C00000D0
:1000D00013C0000011C000000FC000000DC00000E0
:1000E0000BC0000011241FBECFEFD1E2DEBFCDBF99
:1000F00000E00CBF5AD08FC083CF81B18FEF81B9A0
:1001000097B187B90895ECE7F0E080818F73808321
:10011000EAE7F0E080818068808380818760808367
:100120000895ECE7F0E090812081907F892B822B6D
:100130008083EAE7F0E080818064808380917A00A8
:1001400086FDFCCF80917800909179000895CF933F
:10015000DF93EC0168EE73E037D0CB012AE030E0AA
:10016000B90132D0FC01CE0164E670E02DD0CB01A4
:10017000B9012AD0482FCE01B90126D0C82FCB0112
:10018000B90122D082959295907F9827807F9827F9
:10019000C82BC2B9E295F295F07FFE27E07FFE27DB
:1001A0004E2B48B9DF91CF910895A7DFACDF80E0F7
:1001B000B8DFCDDF2FEF83ED90E3215080409040FA
:1001C000E1F700C00000F3CF97FB072E16F4009470
:1001D00006D077FD08D00BD007FC05D03EF49095F3
:1001E00081959F4F0895709561957F4F0895AA1B43
:1001F000BB1B51E107C0AA1FBB1FA617B70710F012
:10020000A61BB70B881F991F5A95A9F78095909543
:0A021000BC01CD010895F894FFCF62
:00000001FF
